:100000000C94DA000C9402010C9402010C9402018D
:100010000C9402010C9402010C9402010C94020154
:100020000C9402010C9402010C9402010C94020144
:100030000C9402010C9402010C9402010C94020134
:100040000C9452030C9402010C9402010C940201D2
:100050000C9402010C9402010C9402010C94020114
:100060000C9402010C94020100407A10F35A00A093
:10007000724E18090010A5D4E80000E87648170071
:1000800000E40B54020000CA9A3B000000E1F505B1
:10009000000080969800000040420F000000A086FB
:1000A00001000000102700000000E803000000002D
:1000B0006400000000000A000000000001000000D1
:1000C00000002C76D888DC674F0823DFC1DFAE59EB
:1000D000E1B1B796E5E3E453C63AE651997696E87E
:1000E000E6C28426EB898C9B62ED407C6FFCEFBC02
:1000F0009C9F40F2BAA56FA5F490055A2AF75C932D
:100100006B6CF9676DC11BFCE0E40D47FEF520E662
:10011000B500D0ED902E0300943577050080841E45
:10012000080000204E0A000000C80C333333330FA0
:10013000986E12831141EF8D2114893BE65516CF3D
:10014000FEE6DB18D1844B381BF77C1D901DA4BB49
:10015000E424203284725E228100C9F124ECA1E5FE
:100160003D27000000080002010000030407000012
:1001700000000000000000000000250028002B0007
:1001800000000000240027002A00040404040404E2
:100190000404020202020202030303030303010236
:1001A0000408102040800102040810200102040805
:1001B0001020A50511241FBECFEFD8E0DEBFCDBFB4
:1001C00021E0AAE1B1E001C01D92A535B207E1F737
:1001D00011E0A0E0B1E0E8ECF7E102C005900D927B
:1001E000AA31B107D9F710E0CAEDD0E004C02197D9
:1001F000FE010E94EA09C93DD107C9F70E949C038C
:100200000C94E20B0C94000090E0FC01E256FE4FCF
:10021000249186579E4FFC018491882399F090E0A9
:10022000880F991FFC01E058FE4FA591B491FC0185
:10023000EA58FE4F859194918FB7F894EC91E22B98
:10024000EC938FBF0895AF92BF92CF92DF92EF925F
:10025000FF920F931F93CF93DF936C017B018B0170
:10026000040F151FEB015E01AE18BF08C017D107C0
:1002700059F06991D601ED91FC910190F081E02D4A
:10028000C6010995892B79F7C501DF91CF911F919F
:100290000F91FF90EF90DF90CF90BF90AF900895B7
:1002A00090E0FC01EE59FE4F2491FC01E256FE4F16
:1002B0003491FC01E657FE4FE491EE23C9F022236E
:1002C00039F0233001F1A8F4213019F1223029F15D
:1002D000F0E0EE0FFF1FEA58FE4FA591B4918FB7E3
:1002E000F894EC91611126C030953E233C938FBF6A
:1002F00008952730A9F02830C9F0243049F78091BB
:1003000080008F7D03C0809180008F778093800074
:10031000DFCF84B58F7784BDDBCF84B58F7DFBCFF6
:100320008091B0008F778093B000D2CF8091B000E1
:100330008F7DF9CF3E2BDACF3FB7F89480911F0124
:1003400090912001A0912101B091220126B5A89B96
:1003500005C02F3F19F00196A11DB11D3FBFBA2F57
:10036000A92F982F8827BC01CD01620F711D811D17
:10037000911D42E0660F771F881F991F4A95D1F79C
:100380000895089590E080E00895CF93DF93EC0105
:1003900060E08E810E94500161E08E810E945001D8
:1003A00060E08E810E9450018BE891E00197F1F7A7
:1003B000DF91CF910895CF92DF92EF92FF920F934A
:1003C0001F93CF93DF936C017C0187E0E80EF11C53
:1003D000D0E0C0E0062F10E0B8010C2E02C07595E9
:1003E00067950A94E2F76170F70181917F010E949D
:1003F00050012196C430D10579F7C601DF91CF9124
:100400001F910F91FF90EF90DF90CF900C94C5015A
:10041000CF92DF92EF92FF920F931F93CF93DF93D0
:10042000EC01F62E642F8C810E9450018D818F3F4C
:1004300019F060E00E9450010F2D10E08F8584FFBD
:1004400025C06E0187E0C80ED11CF12CE12CB8014B
:100450000E2C02C0759567950A94E2F76170F6015B
:1004600081916F010E945001FFEFEF1AFF0A88E0AF
:10047000E816F10461F7CE01DF91CF911F910F9142
:10048000FF90EF90DF90CF900C94C501B80184E00D
:10049000759567958A95E1F7CE010E94DB016F2D76
:1004A000CE01DF91CF911F910F91FF90EF90DF90E0
:1004B000CF900C94DB01CF93DF93823029F490919D
:1004C000480198609093480180934C0110924D012F
:1004D00080E480934E0180E180934F0180E580931A
:1004E000500180913D010E94040180913E018F3FA7
:1004F00011F00E94040180913F010E940401C9E3B0
:10050000D1E09E01295331408091480184FD0AC009
:1005100084E090E02196281739073CF48E810E94F0
:100520000401EFCF88E090E0F5CF8BE39DE00197E9
:10053000F1F760E080913D010E94500160E0809100
:100540003F010E94500180913E018F3F19F060E011
:100550000E9450016091480164FD45C063E089E359
:1005600091E00E94DB01CBE4D6E4CE010197F1F7E4
:1005700063E089E391E00E94DB012197F1F763E0FA
:1005800089E391E00E94DB0183E592E00197F1F7B6
:1005900062E089E391E00E94DB01609148016062C2
:1005A00040E089E391E00E94080284E080934901E1
:1005B00040E06CE089E391E00E94080240E061E0E5
:1005C00089E391E00E9408028BE39FE10197F1F734
:1005D00082E080934A0140E066E089E391E0DF91A8
:1005E000CF910C940802606240E089E391E00E94A0
:1005F00008028BE496E40197F1F76091480160628C
:1006000040E089E391E00E94080283E592E00197CF
:10061000F1F760914801606240E089E391E00E9457
:100620000802BBCF41E00E94080281E090E00895FB
:10063000CF93DF93EC0188819981009711F00E949C
:100640008C0A198218821D821C821B821A82DF91F9
:10065000CF9108950F931F93CF93DF93EC0188817F
:100660009981009759F02A813B812617370730F08E
:1006700081E0DF91CF911F910F9108958B016F5F02
:100680007F4F0E94150B009759F0998388831B8335
:100690000A832C813D81232B59F7FC011082E8CF7E
:1006A00080E0E7CF1F920F920FB60F9211242F9385
:1006B0003F938F939F93AF93BF9380911B01909132
:1006C0001C01A0911D01B0911E0130911A0123E07F
:1006D000230F2D3758F50196A11DB11D20931A0146
:1006E00080931B0190931C01A0931D01B0931E01E8
:1006F00080911F0190912001A0912101B0912201D0
:100700000196A11DB11D80931F0190932001A0931C
:100710002101B0932201BF91AF919F918F913F91A1
:100720002F910F900FBE0F901F90189526E8230F62
:100730000296A11DB11DD2CFCF93DF93CDB7DEB707
:10074000A7970FB6F894DEBF0FBECDBF789484B5DF
:10075000826084BD84B5816084BD85B5826085BDBD
:1007600085B5816085BD80916E00816080936E004B
:10077000109281008091810082608093810080913D
:1007800081008160809381008091800081608093EE
:1007900080008091B10084608093B1008091B000AE
:1007A00081608093B00080917A00846080937A00A9
:1007B00080917A00826080937A0080917A008160D3
:1007C00080937A0080917A00806880937A001092FA
:1007D000C100109227011092280110922901109255
:1007E0002A011092230110922401109225011092E7
:1007F000260180E090E0A8E6B2E480933101909376
:100800003201A0933301B09334018AE999E9A1E45C
:10081000B2E480932D0190932E01A0932F01B09309
:1008200030018AE00E94040182E00E945B0246E0FF
:1008300050E062E171E089E391E00E94230190E4DD
:10084000392E25E0222E3BE3E32E3FE1F32E40E05C
:10085000C42E40E0D42E10922C0110922B018091D6
:100860002B0190912C0144970CF047C030927C00F2
:1008700080917A00806480937A0080917A0086FD6E
:10088000FCCF90917800809179008927982789275B
:10089000289EB001299E700D1124072E000C880B94
:1008A000990B0E941F0820E030EC4FE754E40E94AF
:1008B00073092AE037ED43E25CE30E9473099B0170
:1008C000AC016091270170912801809129019091DC
:1008D0002A010E94070960932701709328018093E1
:1008E000290190932A0180912B0190912C0101966E
:1008F00090932C0180932B01B2CF20E030E040EAAE
:1009000051E4609127017091280180912901909113
:100910002A010E9473092B013C014092350150923B
:1009200036016092370170923801109227011092BF
:1009300028011092290110922A012091230130915F
:10094000240140912501509126010E941808882316
:1009500009F486C040E061E089E391E00E9408026A
:10096000C7010197F1F71BA21AA21DA21CA21FA288
:100970001EA28E010F5F1F4F22E044E0C301B201AF
:100980000E94C3055C01009779F0FC0101900020F2
:10099000E9F731978F01081B190BB801CE01829638
:1009A0000E942A038111B9C0CE0182960E941803C9
:1009B0001A8219821C821B821E821D8266E070E0F0
:1009C000CE0101960E942A038111AFC0CE0101968B
:1009D0000E941803AAA0BBA0A114B10409F4B0C0DE
:1009E0000EA11FA101151105B9F08D819E81080F7F
:1009F000191FB801CE0101960E942A03882309F429
:100A00009FC029813A818D819E81B501820F931FFC
:100A10000E94DB0B1E830D834D815E8169817A818B
:100A200089E391E00E94230189819A81009711F066
:100A30000E948C0A8AA19BA1009711F00E948C0A47
:100A40008091350190913601A0913701B091380124
:100A50008093230190932401A0932501B093260154
:100A60004090350150903601609037017090380108
:100A70002091310130913201409133015091340184
:100A8000C301B2010E94E50918163CF48AE00E94F5
:100A9000040160E08AE00E94500120912D01309114
:100AA0002E0140912F0150913001C301B2010E94EB
:100AB000180887FF07C08AE00E94040161E08AE00D
:100AC0000E9450010E949C014B015C0184E6482E6B
:100AD000512C612C712C0E949C01681979098A099A
:100AE0009B09683E734081059105A8F321E0421AF5
:100AF00051086108710888EE880E83E0981EA11CD9
:100B0000B11C411451046104710429F7C114D104CA
:100B100009F4A1CE0E9400009ECE1FA30EA3B50132
:100B20008AA19BA10E94DB0B43CF86E090E09E83CD
:100B30008D8362E171E089819A810E94DB0B4ACF4B
:100B4000CE0101960E94180367CFE9E3F1E013821A
:100B500012828AE091E0918380838CE084838FEF1E
:100B600085838BE0868385E0878384E0808783E0CC
:100B7000818782E0828713861486158616861786FB
:100B800081E00C945B02EF920F931F93CF93DF935E
:100B9000E80134E047FD34E1042E000C550B57FF0B
:100BA00003C0519541955109E32E022F242FAE0128
:100BB0000E94E105CE01DF91CF911F910F91EF903F
:100BC0000895A9E0B0E0E7EEF5E00C94D5086A01DD
:100BD000F22EB02E102FFBE3AF2EA01608F41BE36D
:100BE0001F5F012F27E0AE014F5F5F4F0E9440075C
:100BF000BC018981982F9970913009F43FC09BE224
:100C0000E1FC04C09E2D9170E0FC3AC05E2D507155
:100C1000E82FE87083FF46C084E0911101C083E0B3
:100C2000EF2DE81B8F1508F0E0E0D6018E2F20E2B3
:100C3000552351F1992329F0D6019C93C6010196C1
:100C40006C0196012D5F3F4FE2FE24C08EE4D60179
:100C50008C9391E411969C93119712968C93D901E1
:100C60008E2F90E281111BC0E20FF32FF11D108235
:100C70008EEF9FEF2996ECE00C94F1089DE2C6CF31
:100C800090E2C4CF2D9381508111FCCFCE0ED11CA8
:100C9000E0E0D0CF8EE6D6018C9391E6DBCF9D933A
:100CA0008150E0CF482F447082FF3DC084E0911115
:100CB00001C083E08F1510F4EF2DE81BD6018E2FB5
:100CC00020E2552309F1992329F0D6019C93C6010E
:100CD00001966C0196012D5F3F4FE2FE1BC089E437
:100CE000D6018C938EE411968C93119786E412961C
:100CF0008C93D9018E2F90E2882309F4B5CF9D9370
:100D00008150FACF2D9381508111FCCFCE0ED11C92
:100D1000E0E0D9CF89E6D6018C938EE611968C93CC
:100D2000119786E6E4CF9B0177FF02C030E020E018
:100D3000A1E0B0E0911102C0B0E0A0E0F90131966D
:100D4000AE0FBF1F8B2C912CBB2009F461C0540146
:100D5000EFEFAE1ABE0AAA0DBB1DFA161B0619F05C
:100D600014F04F2D4A1B511188C0E3FC59C0760185
:100D7000A42FB0E2A1114FC0C40ED11C992309F4D5
:100D80005BC040E0D6011196F60190836D015523BA
:100D900009F448C0012F060F9A81582F507184FF23
:100DA00003C0913309F4015010160CF047C009300C
:100DB00008F008E0EEE2FE2E5B01A01AB108850102
:100DC0009194819491082F3F320729F4D601FC9227
:100DD000F60131966F016217730794F1021713073A
:100DE0007CF5DB01A21BB30BAA24A394B12CAC0E9F
:100DF000BD1EAA0DBB1D11968C9121503109D60143
:100E0000119628153905F4F0F60180836D01DBCFCA
:100E1000B12CA12CA0CFF701B1937F01A150AACF93
:100E20009111B0CFD601942F50E302C05D93915041
:100E30009111FCCFC40ED11C40E0ACCF01E0BACF81
:100E400080E3DBCF6217730731F4963388F4953370
:100E500011F4552369F0F6018083FD01842F90E29F
:100E6000811108C0A40FB11D1C9290E080E002CF58
:100E700081E3F1CF91938150F3CF911183CF8ACF4A
:100E8000283008F027E03327DA01990F311D87FD5C
:100E9000916000966105710539F432602E5F3D93D3
:100EA00030E32A95E1F708959F3F30F080387105CF
:100EB000610509F03C5F3C5F3D93913008F080682C
:100EC000911DDF93CF931F930F93FF92EF92192FF2
:100ED000987F9695E92F96959695E90FFF27EE5303
:100EE000FF4F99273327EE24FF24A701E701059040
:100EF0000894079428F4360FE71EF81E491F511D69
:100F0000660F771F881F991F0694A1F70590079415
:100F100028F4E70EF81E491F561FC11D770F881FC2
:100F2000991F661F0694A1F70590079428F4F80E00
:100F3000491F561FC71FD11D880F991F661F771F96
:100F40000694A1F70590079420F4490F561FC71F78
:100F5000D81F990F661F771F881F0694A9F78491E1
:100F60001095177041F0D695C79557954795F7940A
:100F7000E7941A95C1F7E8E6F0E0689415901591AA
:100F800035916591959105907FE27395E118F10A8D
:100F9000430B560BC90BD009C0F7E10CF11E431FE0
:100FA000561FC91FD01D7EF4703311F48A95E6CF09
:100FB000E894015030F0080F0AF40027021708F4F3
:100FC000202F2395022F7A3328F079E37D932A95F9
:100FD000E9F710C07D932A9589F606949795679551
:100FE000379517951794E118F10A430B560BC90B67
:100FF000D00998F023957E9173957A3308F070E3C9
:101000007C932013B8F77E9170617D9330F08395C7
:1010100071E37D9370E32A95E1F71124EF90FF903F
:101020000F911F91CF91DF91992787FD909508959A
:101030000E945A0808F481E00895E89409C097FBDB
:101040003EF490958095709561957F4F8F4F9F4F9F
:101050009923A9F0F92F96E9BB279395F6958795E3
:1010600077956795B795F111F8CFFAF4BB0F11F4A6
:1010700060FF1BC06F5F7F4F8F4F9F4F16C088234D
:1010800011F096E911C0772321F09EE8872F762F83
:1010900005C0662371F096E8862F70E060E02AF0C4
:1010A0009A95660F771F881FDAF7880F96958795B0
:1010B00097F90895990F0008550FAA0BE0E8FEEF85
:1010C00016161706E807F907C0F012161306E4070C
:1010D000F50798F0621B730B840B950B39F40A2605
:1010E00061F0232B242B252B21F408950A2609F4E3
:1010F000A140A6958FEF811D811D089597F99F67E7
:1011000080E870E060E008959FEF80EC089500248F
:101110000A941616170618060906089500240A945C
:1011200012161306140605060895092E0394000CE2
:1011300011F4882352F0BB0F40F4BF2B11F460FF71
:1011400004C06F5F7F4F8F4F9F4F089557FD90589A
:10115000440F551F59F05F3F71F04795880F97FB7B
:10116000991F61F09F3F79F0879508951216130635
:101170001406551FF2CF4695F1DF08C01616170664
:101180001806991FF1CF8695710561050894089599
:10119000E894BB2766277727CB0197F908952F920C
:1011A0003F924F925F926F927F928F929F92AF92F7
:1011B000BF92CF92DF92EF92FF920F931F93CF9344
:1011C000DF93CDB7DEB7CA1BDB0B0FB6F894DEBFDB
:1011D0000FBECDBF09942A88398848885F846E8401
:1011E0007D848C849B84AA84B984C884DF80EE804B
:1011F000FD800C811B81AA81B981CE0FD11D0FB654
:10120000F894DEBF0FBECDBFED0108955058BB2747
:10121000AA270E941E090C9495080E94870838F09E
:101220000E948E0820F039F49F3F19F426F40C94A4
:1012300084080EF4E095E7FB0C947E08E92F0E94E9
:10124000A60858F3BA17620773078407950720F0BA
:1012500079F4A6F50C94C8080EF4E0950B2EBA2F7D
:10126000A02D0B01B90190010C01CA01A0011124AC
:10127000FF27591B99F0593F50F4503E68F11A1658
:10128000F040A22F232F342F4427585FF3CF4695E9
:1012900037952795A795F0405395C9F77EF41F160B
:1012A000BA0B620B730B840BBAF09150A1F0FF0FD5
:1012B000BB1F661F771F881FC2F70EC0BA0F621FC1
:1012C000731F841F48F4879577956795B795F795B1
:1012D0009E3F08F0B0CF9395880F08F09927EE0F46
:1012E0009795879508950E9487090C9495080E9408
:1012F0008E0858F00E94870840F029F45F3F29F0DB
:101300000C947E0851110C94C9080C9484080E9416
:10131000A60868F39923B1F3552391F3951B550B58
:10132000BB27AA2762177307840738F09F5F5F4FB8
:10133000220F331F441FAA1FA9F335D00E2E3AF0F7
:10134000E0E832D091505040E695001CCAF72BD00F
:10135000FE2F29D0660F771F881FBB1F2617370760
:101360004807AB07B0E809F0BB0B802DBF01FF2792
:1013700093585F4F3AF09E3F510578F00C947E08E9
:101380000C94C9085F3FE4F3983ED4F386957795B3
:101390006795B795F7959F5FC9F7880F911D96954B
:1013A000879597F90895E1E0660F771F881FBB1FA7
:1013B000621773078407BA0720F0621B730B840B54
:1013C000BA0BEE1F88F7E09508950E945A0808F4BA
:1013D0008FEF0895EE0FFF1F0590F491E02D099413
:1013E0000F931F93CF93DF938230910510F482E027
:1013F00090E0E0915301F091540130E020E0B0E042
:10140000A0E0309799F42115310509F44AC0281B52
:10141000390B24303105D8F58A819B81611571051E
:1014200089F1FB0193838283FE0111C040815181C8
:101430000281138148175907E0F04817590799F4BA
:10144000109761F012960C93129713961C93329694
:10145000CF01DF91CF911F910F9108950093530118
:1014600010935401F4CF2115310551F04217530761
:1014700038F0A901DB019A01BD01DF01F801C1CFFC
:10148000EF01F9CF9093540180935301CDCFFE012A
:10149000E20FF31F819391932250310939832883FE
:1014A000D7CF2091510130915201232B41F420914B
:1014B0000201309103013093520120935101209198
:1014C0000001309101012115310541F42DB73EB7DE
:1014D0004091040150910501241B350BE09151010D
:1014E000F0915201E217F307A0F42E1B3F0B2817CF
:1014F000390778F0AC014E5F5F4F2417350748F08D
:101500004E0F5F1F5093520140935101819391936D
:101510009FCFF0E0E0E09CCFCF93DF930097E9F01E
:10152000FC01329713821282A0915301B0915401B1
:10153000ED0130E020E01097A1F420813181820F8D
:10154000931F20915101309152012817390709F05A
:1015500061C0F0935201E0935101DF91CF91089562
:10156000EA01CE17DF07E8F54A815B819E0141154C
:101570005105B1F7E901FB83EA8349915991C40F01
:10158000D51FEC17FD0761F4808191810296840FCD
:10159000951FE90199838883828193819B838A8344
:1015A000F0E0E0E012968D919C9113970097B9F5C9
:1015B0002D913C911197CD010296820F931F20919E
:1015C0005101309152012817390739F6309751F5FA
:1015D0001092540110925301B0935201A093510103
:1015E000BCCFD383C28340815181840F951FC8171C
:1015F000D90761F44E5F5F4F88819981480F591F69
:10160000518340838A819B81938382832115310595
:1016100009F0B0CFF0935401E09353019ECFFD0148
:10162000DC01C0CF13821282D7CFB0E0A0E0EBE1A3
:10163000FBE00C94D1088C01009751F4CB010E947F
:10164000F0098C01C801CDB7DEB7E0E10C94ED08DC
:10165000FC01E60FF71F9C0122503109E217F30746
:1016600008F49DC0D901CD91DC911197C617D70719
:1016700098F0C530D10530F3CE010497861797074F
:1016800008F3C61BD70B2297C193D1936D937C931C
:10169000CF010E948C0AD6CF5B01AC1ABD0A4C0167
:1016A0008C0E9D1EA0915301B0915401512C412CE0
:1016B000F12CE12C109731F580915101909152015C
:1016C0008815990509F05CC04616570608F058C001
:1016D0008091000190910101009741F48DB79EB770
:1016E0004091040150910501841B950BE817F907FF
:1016F00008F055C0F0935201E0935101F901718354
:101700006083A0CF8D919C91119712966C90129747
:1017100013967C901397A815B90559F56C0142E012
:10172000C40ED11CCA14DB0420F1AC014A195B09B8
:10173000DA011296159780F062827382518340839A
:10174000D9016D937C93E114F10471F0D7011396E4
:10175000FC93EE93129776CF22968C0F9D1FF90182
:1017600091838083F301EFCFF0935401E093530111
:1017700069CF4816590608F42C017D01D3019ACF90
:10178000CB010E94F0097C01009749F0AE01B8013D
:101790000E94D20BC8010E948C0A870153CF10E02F
:1017A00000E050CFFB01DC0102C001900D924150DE
:1017B0005040D8F70895FB01DC0101900D92002004
:0817C000E1F70895F894FFCF52
:1017C8000000550180000000000012032301C2013F
:0A17D800C10154656D703A20000055
:00000001FF
